{
  "address": "0x644B71f85269D377ef5F1666ACE55315e20c037C",
  "abi": [
    {
      "inputs": [
        {
          "internalType": "uint256[]",
          "name": "_rentPrices",
          "type": "uint256[]"
        }
      ],
      "stateMutability": "nonpayable",
      "type": "constructor"
    },
    {
      "anonymous": false,
      "inputs": [
        {
          "indexed": false,
          "internalType": "uint256[]",
          "name": "prices",
          "type": "uint256[]"
        }
      ],
      "name": "RentPriceChanged",
      "type": "event"
    },
    {
      "inputs": [
        {
          "internalType": "string",
          "name": "name",
          "type": "string"
        },
        {
          "internalType": "uint256",
          "name": "expires",
          "type": "uint256"
        },
        {
          "internalType": "uint256",
          "name": "duration",
          "type": "uint256"
        }
      ],
      "name": "price",
      "outputs": [
        {
          "components": [
            {
              "internalType": "uint256",
              "name": "baseCents",
              "type": "uint256"
            }
          ],
          "internalType": "struct IAnytypePriceOracle.Price",
          "name": "",
          "type": "tuple"
        }
      ],
      "stateMutability": "view",
      "type": "function"
    },
    {
      "inputs": [],
      "name": "price1Letter",
      "outputs": [
        {
          "internalType": "uint256",
          "name": "",
          "type": "uint256"
        }
      ],
      "stateMutability": "view",
      "type": "function"
    },
    {
      "inputs": [],
      "name": "price2Letter",
      "outputs": [
        {
          "internalType": "uint256",
          "name": "",
          "type": "uint256"
        }
      ],
      "stateMutability": "view",
      "type": "function"
    },
    {
      "inputs": [],
      "name": "price3Letter",
      "outputs": [
        {
          "internalType": "uint256",
          "name": "",
          "type": "uint256"
        }
      ],
      "stateMutability": "view",
      "type": "function"
    },
    {
      "inputs": [],
      "name": "price4Letter",
      "outputs": [
        {
          "internalType": "uint256",
          "name": "",
          "type": "uint256"
        }
      ],
      "stateMutability": "view",
      "type": "function"
    },
    {
      "inputs": [],
      "name": "price5Letter",
      "outputs": [
        {
          "internalType": "uint256",
          "name": "",
          "type": "uint256"
        }
      ],
      "stateMutability": "view",
      "type": "function"
    },
    {
      "inputs": [
        {
          "internalType": "bytes4",
          "name": "interfaceID",
          "type": "bytes4"
        }
      ],
      "name": "supportsInterface",
      "outputs": [
        {
          "internalType": "bool",
          "name": "",
          "type": "bool"
        }
      ],
      "stateMutability": "view",
      "type": "function"
    }
  ],
  "transactionHash": "0xca0d67c0f27999605c25999c37eb834ed63f3e45940335338499ebc5707cfa75",
  "args": [
    [
      1000,
      1000,
      1000,
      1000,
      1000
    ]
  ],
  "numDeployments": 1,
  "solcInputHash": "4d97b1168a02bd4dec67caa9e9fa8aaa",
  "bytecode": "0x61012060405234801561001157600080fd5b506040516108f93803806108f9833981016040819052610030916100f7565b80600081518110610043576100436101b4565b60200260200101516080818152505080600181518110610065576100656101b4565b602002602001015160a0818152505080600281518110610087576100876101b4565b602002602001015160c08181525050806003815181106100a9576100a96101b4565b602002602001015160e08181525050806004815181106100cb576100cb6101b4565b60200260200101516101008181525050506101ca565b634e487b7160e01b600052604160045260246000fd5b6000602080838503121561010a57600080fd5b82516001600160401b038082111561012157600080fd5b818501915085601f83011261013557600080fd5b815181811115610147576101476100e1565b8060051b604051601f19603f8301168101818110858211171561016c5761016c6100e1565b60405291825284820192508381018501918883111561018a57600080fd5b938501935b828510156101a85784518452938501939285019261018f565b98975050505050505050565b634e487b7160e01b600052603260045260246000fd5b60805160a05160c05160e051610100516106c96102306000396000818161010601526102b201526000818161017b01526102e101526000818161012d0152610310015260008181610154015261033f01526000818160af015261036601526106c96000f3fe608060405234801561001057600080fd5b506004361061007d5760003560e01c806359b6b86c1161005b57806359b6b86c14610101578063a200e15314610128578063cd5d2c741461014f578063d820ed421461017657600080fd5b806301ffc9a7146100825780632c0fd74c146100aa57806350e9a715146100df575b600080fd5b61009561009036600461053a565b61019d565b60405190151581526020015b60405180910390f35b6100d17f000000000000000000000000000000000000000000000000000000000000000081565b6040519081526020016100a1565b6100f26100ed366004610583565b610236565b604051905181526020016100a1565b6100d17f000000000000000000000000000000000000000000000000000000000000000081565b6100d17f000000000000000000000000000000000000000000000000000000000000000081565b6100d17f000000000000000000000000000000000000000000000000000000000000000081565b6100d17f000000000000000000000000000000000000000000000000000000000000000081565b60007fffffffff0000000000000000000000000000000000000000000000000000000082167f01ffc9a700000000000000000000000000000000000000000000000000000000148061023057507fffffffff0000000000000000000000000000000000000000000000000000000082167f50e9a71500000000000000000000000000000000000000000000000000000000145b92915050565b604080516020810190915260008152600061028686868080601f0160208091040260200160405190810160405280939291908181526020018383808284376000920191909152506103ab92505050565b905060006102986301e1338085610618565b6102a390600161063a565b90506000600583106102d657507f0000000000000000000000000000000000000000000000000000000000000000610386565b8260040361030557507f0000000000000000000000000000000000000000000000000000000000000000610386565b8260030361033457507f0000000000000000000000000000000000000000000000000000000000000000610386565b8260020361036357507f0000000000000000000000000000000000000000000000000000000000000000610386565b507f00000000000000000000000000000000000000000000000000000000000000005b6040518060200160405280828461039d919061064d565b905298975050505050505050565b8051600090819081905b808210156105315760008583815181106103d1576103d1610664565b01602001516001600160f81b03191690507f800000000000000000000000000000000000000000000000000000000000000081101561041c5761041560018461063a565b925061051e565b7fe0000000000000000000000000000000000000000000000000000000000000006001600160f81b0319821610156104595761041560028461063a565b7ff0000000000000000000000000000000000000000000000000000000000000006001600160f81b0319821610156104965761041560038461063a565b7ff8000000000000000000000000000000000000000000000000000000000000006001600160f81b0319821610156104d35761041560048461063a565b7ffc000000000000000000000000000000000000000000000000000000000000006001600160f81b0319821610156105105761041560058461063a565b61051b60068461063a565b92505b50826105298161067a565b9350506103b5565b50909392505050565b60006020828403121561054c57600080fd5b81357fffffffff000000000000000000000000000000000000000000000000000000008116811461057c57600080fd5b9392505050565b6000806000806060858703121561059957600080fd5b843567ffffffffffffffff808211156105b157600080fd5b818701915087601f8301126105c557600080fd5b8135818111156105d457600080fd5b8860208285010111156105e657600080fd5b6020928301999098509187013596604001359550909350505050565b634e487b7160e01b600052601160045260246000fd5b60008261063557634e487b7160e01b600052601260045260246000fd5b500490565b8082018082111561023057610230610602565b808202811582820484141761023057610230610602565b634e487b7160e01b600052603260045260246000fd5b60006001820161068c5761068c610602565b506001019056fea264697066735822122005f6a0fdc4f026a917a180dd255fafa1794caab061b261a8c6c999f749f27ca364736f6c63430008110033",
  "devdoc": {
    "details": "A simple price oracle for Anytype domains.",
    "kind": "dev",
    "methods": {
      "price(string,uint256,uint256)": {
        "details": "Returns the price to register or renew a name.",
        "params": {
          "duration": "How long the name is being registered or extended for, in seconds.",
          "expires": "When the name presently expires (0 if this is a new registration).",
          "name": "The name being registered or renewed."
        },
        "returns": {
          "_0": "base premium tuple of base price + premium price"
        }
      }
    },
    "title": "AnytypePriceOracle",
    "version": 1
  },
  "userdoc": {
    "kind": "user",
    "methods": {},
    "version": 1
  },
  "storageLayout": {
    "storage": [],
    "types": null
  }
}