{
  "address": "0xaf58DEC656f411279699665f91aae95E2994fE8C",
  "abi": [
    {
      "inputs": [
        {
          "internalType": "contract AnytypeRegistrarImplementation",
          "name": "_base",
          "type": "address"
        },
        {
          "internalType": "contract IAnytypePriceOracle",
          "name": "_prices",
          "type": "address"
        },
        {
          "internalType": "uint256",
          "name": "_minCommitmentAge",
          "type": "uint256"
        },
        {
          "internalType": "uint256",
          "name": "_maxCommitmentAge",
          "type": "uint256"
        },
        {
          "internalType": "contract ReverseRegistrar",
          "name": "_reverseRegistrar",
          "type": "address"
        },
        {
          "internalType": "contract INameWrapper",
          "name": "_nameWrapper",
          "type": "address"
        },
        {
          "internalType": "contract ENS",
          "name": "_ens",
          "type": "address"
        }
      ],
      "stateMutability": "nonpayable",
      "type": "constructor"
    },
    {
      "inputs": [
        {
          "internalType": "bytes32",
          "name": "commitment",
          "type": "bytes32"
        }
      ],
      "name": "CommitmentTooNew",
      "type": "error"
    },
    {
      "inputs": [
        {
          "internalType": "bytes32",
          "name": "commitment",
          "type": "bytes32"
        }
      ],
      "name": "CommitmentTooOld",
      "type": "error"
    },
    {
      "inputs": [
        {
          "internalType": "uint256",
          "name": "duration",
          "type": "uint256"
        }
      ],
      "name": "DurationTooShort",
      "type": "error"
    },
    {
      "inputs": [],
      "name": "InsufficientValue",
      "type": "error"
    },
    {
      "inputs": [],
      "name": "MaxCommitmentAgeTooHigh",
      "type": "error"
    },
    {
      "inputs": [],
      "name": "MaxCommitmentAgeTooLow",
      "type": "error"
    },
    {
      "inputs": [
        {
          "internalType": "string",
          "name": "name",
          "type": "string"
        }
      ],
      "name": "NameNotAvailable",
      "type": "error"
    },
    {
      "inputs": [],
      "name": "ResolverRequiredWhenDataSupplied",
      "type": "error"
    },
    {
      "inputs": [
        {
          "internalType": "bytes32",
          "name": "commitment",
          "type": "bytes32"
        }
      ],
      "name": "UnexpiredCommitmentExists",
      "type": "error"
    },
    {
      "anonymous": false,
      "inputs": [
        {
          "indexed": false,
          "internalType": "string",
          "name": "name",
          "type": "string"
        },
        {
          "indexed": true,
          "internalType": "bytes32",
          "name": "label",
          "type": "bytes32"
        },
        {
          "indexed": true,
          "internalType": "address",
          "name": "owner",
          "type": "address"
        },
        {
          "indexed": false,
          "internalType": "uint256",
          "name": "baseCostCents",
          "type": "uint256"
        },
        {
          "indexed": false,
          "internalType": "uint256",
          "name": "expires",
          "type": "uint256"
        }
      ],
      "name": "NameRegistered",
      "type": "event"
    },
    {
      "anonymous": false,
      "inputs": [
        {
          "indexed": false,
          "internalType": "string",
          "name": "name",
          "type": "string"
        },
        {
          "indexed": true,
          "internalType": "bytes32",
          "name": "label",
          "type": "bytes32"
        },
        {
          "indexed": false,
          "internalType": "uint256",
          "name": "costCents",
          "type": "uint256"
        },
        {
          "indexed": false,
          "internalType": "uint256",
          "name": "expires",
          "type": "uint256"
        }
      ],
      "name": "NameRenewed",
      "type": "event"
    },
    {
      "anonymous": false,
      "inputs": [
        {
          "indexed": true,
          "internalType": "address",
          "name": "previousOwner",
          "type": "address"
        },
        {
          "indexed": true,
          "internalType": "address",
          "name": "newOwner",
          "type": "address"
        }
      ],
      "name": "OwnershipTransferred",
      "type": "event"
    },
    {
      "inputs": [],
      "name": "MIN_REGISTRATION_DURATION",
      "outputs": [
        {
          "internalType": "uint256",
          "name": "",
          "type": "uint256"
        }
      ],
      "stateMutability": "view",
      "type": "function"
    },
    {
      "inputs": [
        {
          "internalType": "address",
          "name": "_token",
          "type": "address"
        },
        {
          "internalType": "uint8",
          "name": "_decimals",
          "type": "uint8"
        }
      ],
      "name": "addERC20UsdPaymentOption",
      "outputs": [],
      "stateMutability": "nonpayable",
      "type": "function"
    },
    {
      "inputs": [
        {
          "internalType": "string",
          "name": "name",
          "type": "string"
        }
      ],
      "name": "available",
      "outputs": [
        {
          "internalType": "bool",
          "name": "",
          "type": "bool"
        }
      ],
      "stateMutability": "view",
      "type": "function"
    },
    {
      "inputs": [
        {
          "internalType": "bytes32",
          "name": "commitment",
          "type": "bytes32"
        }
      ],
      "name": "commit",
      "outputs": [],
      "stateMutability": "nonpayable",
      "type": "function"
    },
    {
      "inputs": [
        {
          "internalType": "bytes32",
          "name": "",
          "type": "bytes32"
        }
      ],
      "name": "commitments",
      "outputs": [
        {
          "internalType": "uint256",
          "name": "",
          "type": "uint256"
        }
      ],
      "stateMutability": "view",
      "type": "function"
    },
    {
      "inputs": [
        {
          "internalType": "string",
          "name": "name",
          "type": "string"
        },
        {
          "internalType": "address",
          "name": "owner",
          "type": "address"
        },
        {
          "internalType": "uint256",
          "name": "duration",
          "type": "uint256"
        },
        {
          "internalType": "bytes32",
          "name": "secret",
          "type": "bytes32"
        },
        {
          "internalType": "address",
          "name": "resolver",
          "type": "address"
        },
        {
          "internalType": "bytes[]",
          "name": "data",
          "type": "bytes[]"
        },
        {
          "internalType": "bool",
          "name": "reverseRecord",
          "type": "bool"
        },
        {
          "internalType": "uint16",
          "name": "ownerControlledFuses",
          "type": "uint16"
        }
      ],
      "name": "makeCommitment",
      "outputs": [
        {
          "internalType": "bytes32",
          "name": "",
          "type": "bytes32"
        }
      ],
      "stateMutability": "pure",
      "type": "function"
    },
    {
      "inputs": [],
      "name": "maxCommitmentAge",
      "outputs": [
        {
          "internalType": "uint256",
          "name": "",
          "type": "uint256"
        }
      ],
      "stateMutability": "view",
      "type": "function"
    },
    {
      "inputs": [],
      "name": "minCommitmentAge",
      "outputs": [
        {
          "internalType": "uint256",
          "name": "",
          "type": "uint256"
        }
      ],
      "stateMutability": "view",
      "type": "function"
    },
    {
      "inputs": [],
      "name": "nameWrapper",
      "outputs": [
        {
          "internalType": "contract INameWrapper",
          "name": "",
          "type": "address"
        }
      ],
      "stateMutability": "view",
      "type": "function"
    },
    {
      "inputs": [],
      "name": "owner",
      "outputs": [
        {
          "internalType": "address",
          "name": "",
          "type": "address"
        }
      ],
      "stateMutability": "view",
      "type": "function"
    },
    {
      "inputs": [
        {
          "internalType": "uint256",
          "name": "",
          "type": "uint256"
        }
      ],
      "name": "paymentOptions",
      "outputs": [
        {
          "internalType": "address",
          "name": "token",
          "type": "address"
        },
        {
          "internalType": "uint8",
          "name": "decimals",
          "type": "uint8"
        },
        {
          "internalType": "bool",
          "name": "enabled",
          "type": "bool"
        }
      ],
      "stateMutability": "view",
      "type": "function"
    },
    {
      "inputs": [],
      "name": "paymentOptionsCount",
      "outputs": [
        {
          "internalType": "uint256",
          "name": "",
          "type": "uint256"
        }
      ],
      "stateMutability": "view",
      "type": "function"
    },
    {
      "inputs": [],
      "name": "prices",
      "outputs": [
        {
          "internalType": "contract IAnytypePriceOracle",
          "name": "",
          "type": "address"
        }
      ],
      "stateMutability": "view",
      "type": "function"
    },
    {
      "inputs": [
        {
          "internalType": "address",
          "name": "_token",
          "type": "address"
        },
        {
          "internalType": "address",
          "name": "_to",
          "type": "address"
        },
        {
          "internalType": "uint256",
          "name": "_amount",
          "type": "uint256"
        }
      ],
      "name": "recoverFunds",
      "outputs": [],
      "stateMutability": "nonpayable",
      "type": "function"
    },
    {
      "inputs": [
        {
          "internalType": "string",
          "name": "name",
          "type": "string"
        },
        {
          "internalType": "address",
          "name": "owner",
          "type": "address"
        },
        {
          "internalType": "uint256",
          "name": "duration",
          "type": "uint256"
        },
        {
          "internalType": "bytes32",
          "name": "secret",
          "type": "bytes32"
        },
        {
          "internalType": "address",
          "name": "resolver",
          "type": "address"
        },
        {
          "internalType": "bytes[]",
          "name": "data",
          "type": "bytes[]"
        },
        {
          "internalType": "bool",
          "name": "reverseRecord",
          "type": "bool"
        },
        {
          "internalType": "uint16",
          "name": "ownerControlledFuses",
          "type": "uint16"
        }
      ],
      "name": "register",
      "outputs": [],
      "stateMutability": "nonpayable",
      "type": "function"
    },
    {
      "inputs": [
        {
          "internalType": "string",
          "name": "name",
          "type": "string"
        },
        {
          "internalType": "address",
          "name": "owner",
          "type": "address"
        },
        {
          "internalType": "uint256",
          "name": "duration",
          "type": "uint256"
        }
      ],
      "name": "renew",
      "outputs": [],
      "stateMutability": "nonpayable",
      "type": "function"
    },
    {
      "inputs": [],
      "name": "renounceOwnership",
      "outputs": [],
      "stateMutability": "nonpayable",
      "type": "function"
    },
    {
      "inputs": [
        {
          "internalType": "string",
          "name": "name",
          "type": "string"
        },
        {
          "internalType": "uint256",
          "name": "duration",
          "type": "uint256"
        }
      ],
      "name": "rentPrice",
      "outputs": [
        {
          "components": [
            {
              "internalType": "uint256",
              "name": "baseCents",
              "type": "uint256"
            }
          ],
          "internalType": "struct IAnytypePriceOracle.Price",
          "name": "price",
          "type": "tuple"
        }
      ],
      "stateMutability": "view",
      "type": "function"
    },
    {
      "inputs": [],
      "name": "reverseRegistrar",
      "outputs": [
        {
          "internalType": "contract ReverseRegistrar",
          "name": "",
          "type": "address"
        }
      ],
      "stateMutability": "view",
      "type": "function"
    },
    {
      "inputs": [
        {
          "internalType": "bytes4",
          "name": "interfaceID",
          "type": "bytes4"
        }
      ],
      "name": "supportsInterface",
      "outputs": [
        {
          "internalType": "bool",
          "name": "",
          "type": "bool"
        }
      ],
      "stateMutability": "pure",
      "type": "function"
    },
    {
      "inputs": [
        {
          "internalType": "address",
          "name": "newOwner",
          "type": "address"
        }
      ],
      "name": "transferOwnership",
      "outputs": [],
      "stateMutability": "nonpayable",
      "type": "function"
    },
    {
      "inputs": [
        {
          "internalType": "address",
          "name": "_token",
          "type": "address"
        },
        {
          "internalType": "uint8",
          "name": "_decimals",
          "type": "uint8"
        },
        {
          "internalType": "bool",
          "name": "_enabled",
          "type": "bool"
        }
      ],
      "name": "updateERC20UsdPaymentOption",
      "outputs": [],
      "stateMutability": "nonpayable",
      "type": "function"
    },
    {
      "inputs": [
        {
          "internalType": "string",
          "name": "name",
          "type": "string"
        }
      ],
      "name": "valid",
      "outputs": [
        {
          "internalType": "bool",
          "name": "",
          "type": "bool"
        }
      ],
      "stateMutability": "pure",
      "type": "function"
    },
    {
      "inputs": [],
      "name": "withdraw",
      "outputs": [],
      "stateMutability": "nonpayable",
      "type": "function"
    }
  ],
  "transactionHash": "0xd57be422f4b16a4289cb7f80baa704d4509fd470dcdbcf4f42c8c4fee487bdaa",
  "args": [
    "0x61a8987F4d8ACcEa0964498e7DCeF3BEEdB04Ed9",
    "0x0076558eBa8b9f05902e6779f43fAD0c14F56c39",
    0,
    86400,
    "0x10fB9147A8778F09d361A45a9b31770A99Cd8524",
    "0x343FD86420813AF9F10B8C12D0Ff7da06375EF55",
    "0xe97C40Fa102Ad496092c9f2204Ec3bA6076b5C66"
  ],
  "numDeployments": 1,
  "solcInputHash": "c4dcd6396bfd6dd2b492ee8485b2fe73",
  "bytecode": "0x6101406040526000600b553480156200001757600080fd5b506040516200269e3803806200269e8339810160408190526200003a9162000227565b80336200004781620001be565b6040516302571be360e01b81527f91d1777781884d03a6757a803996e38de2a42967fb37eeaca72729271025a9e260048201526000906001600160a01b038416906302571be390602401602060405180830381865afa158015620000af573d6000803e3d6000fd5b505050506040513d601f19601f82011682018060405250810190620000d59190620002bb565b604051630f41a04d60e11b81526001600160a01b03848116600483015291925090821690631e83409a906024016020604051808303816000875af115801562000122573d6000803e3d6000fd5b505050506040513d601f19601f82011682018060405250810190620001489190620002e2565b505050508484116200016d576040516307cb550760e31b815260040160405180910390fd5b428411156200018f57604051630b4319e560e21b815260040160405180910390fd5b506001600160a01b0395861660805293851660a05260c09290925260e0528216610100521661012052620002fc565b600080546001600160a01b038381166001600160a01b0319831681178455604051919092169283917f8be0079c531659141344cd1fd0a4f28419497f9722a3daafe3b4186f6b6457e09190a35050565b6001600160a01b03811681146200022457600080fd5b50565b600080600080600080600060e0888a0312156200024357600080fd5b875162000250816200020e565b602089015190975062000263816200020e565b809650506040880151945060608801519350608088015162000285816200020e565b60a089015190935062000298816200020e565b60c0890151909250620002ab816200020e565b8091505092959891949750929550565b600060208284031215620002ce57600080fd5b8151620002db816200020e565b9392505050565b600060208284031215620002f557600080fd5b5051919050565b60805160a05160c05160e051610100516101205161231a6200038460003960008181610348015281816105d301526108dd01526000818161027201526115a001526000818161039e01528181610f6b01526113cc0152600081816102fd01526113550152600081816103c50152610a9f015260008181610ad40152610c07015261231a6000f3fe608060405234801561001057600080fd5b50600436106101985760003560e01c80638d839ffe116100e3578063c832eb601161008c578063d763866a11610066578063d763866a146103e7578063f14fcbc8146103fa578063f2fde38b1461040d57600080fd5b8063c832eb6014610390578063ce1e09c014610399578063d3419bf3146103c057600080fd5b8063a8e5fbc0116100bd578063a8e5fbc014610343578063aeb8ce9b1461036a578063c08ca92d1461037d57600080fd5b80638d839ffe146102f85780638da5cb5b1461031f5780639791c0971461033057600080fd5b8063715018a611610145578063839df9451161011f578063839df945146102ac57806383e7f6ff146102cc5780638a95b09f146102ee57600080fd5b8063715018a61461025257806374694a2b1461025a578063808698531461026d57600080fd5b80634260c5bf116101765780634260c5bf1461020b5780635d3590d51461021e57806365a69dcf1461023157600080fd5b806301ffc9a71461019d5780633ccfd60b146101c55780633e2b79a0146101cf575b600080fd5b6101b06101ab3660046117e1565b610420565b60405190151581526020015b60405180910390f35b6101cd6104b9565b005b6101e26101dd366004611823565b6104f6565b604080516001600160a01b03909416845260ff90921660208401521515908201526060016101bc565b6101cd6102193660046118a1565b61052b565b6101cd61022c3660046118fd565b610697565b61024461023f366004611a63565b610731565b6040519081526020016101bc565b6101cd6107cf565b6101cd610268366004611b24565b6107e3565b6102947f000000000000000000000000000000000000000000000000000000000000000081565b6040516001600160a01b0390911681526020016101bc565b6102446102ba366004611823565b600c6020526000908152604090205481565b6102df6102da366004611bee565b610a5a565b604051905181526020016101bc565b6102446224ea0081565b6102447f000000000000000000000000000000000000000000000000000000000000000081565b6000546001600160a01b0316610294565b6101b061033e366004611c33565b610ba9565b6102947f000000000000000000000000000000000000000000000000000000000000000081565b6101b0610378366004611c33565b610bbe565b6101cd61038b366004611c79565b610c81565b610244600b5481565b6102447f000000000000000000000000000000000000000000000000000000000000000081565b6102947f000000000000000000000000000000000000000000000000000000000000000081565b6101cd6103f5366004611cc0565b610dcb565b6101cd610408366004611823565b610f54565b6101cd61041b366004611cf3565b610fdd565b60007fffffffff0000000000000000000000000000000000000000000000000000000082167f01ffc9a70000000000000000000000000000000000000000000000000000000014806104b357507fffffffff0000000000000000000000000000000000000000000000000000000082167f9850ceb000000000000000000000000000000000000000000000000000000000145b92915050565b600080546040516001600160a01b03909116914780156108fc02929091818181858888f193505050501580156104f3573d6000803e3d6000fd5b50565b600181600a811061050657600080fd5b01546001600160a01b038116915060ff600160a01b8204811691600160a81b90041683565b6000848460405161053d929190611d0e565b604080519182900382206020601f88018190048102840181019092528683529250829160009161058a91908990899081908401838280828437600092019190915250889250610a5a915050565b8051909150610599868261106a565b506040517fc475abff00000000000000000000000000000000000000000000000000000000815260048101849052602481018690526000907f00000000000000000000000000000000000000000000000000000000000000006001600160a01b03169063c475abff906044016020604051808303816000875af1158015610624573d6000803e3d6000fd5b505050506040513d601f19601f820116820180604052508101906106489190611d1e565b9050847f3da24c024582931cfaf8267d8ed24d13a82a8068d5bd337d30ec45cea4e506ae8a8a8660000151856040516106849493929190611d60565b60405180910390a2505050505050505050565b61069f611287565b6040517fa9059cbb0000000000000000000000000000000000000000000000000000000081526001600160a01b0383811660048301526024820183905284169063a9059cbb906044016020604051808303816000875af1158015610707573d6000803e3d6000fd5b505050506040513d601f19601f8201168201806040525081019061072b9190611d87565b50505050565b885160208a0120600090841580159061075157506001600160a01b038716155b15610788576040517fd3f605c400000000000000000000000000000000000000000000000000000000815260040160405180910390fd5b808a8a8a8a8a8a8a8a6040516020016107a999989796959493929190611e33565b604051602081830303815290604052805190602001209150509998505050505050505050565b6107d7611287565b6107e160006112e1565b565b60006108268b8b8080601f0160208091040260200160405190810160405280939291908181526020018383808284376000920191909152508c9250610a5a915050565b80519091506108358a8261106a565b506108d98c8c8080601f016020809104026020016040519081016040528093929190818152602001838380828437600081840152601f19601f820116905080830192505050505050508a6108d48f8f8080601f016020809104026020016040519081016040528093929190818152602001838380828437600081840152601f19601f820116905080830192505050505050508e8e8e8e8e8e8e8e610731565b61133e565b60007f00000000000000000000000000000000000000000000000000000000000000006001600160a01b031663a40149828e8e8e8e8d8a6040518763ffffffff1660e01b815260040161093196959493929190611e95565b6020604051808303816000875af1158015610950573d6000803e3d6000fd5b505050506040513d601f19601f820116820180604052508101906109749190611d1e565b9050851561099f5761099f888e8e604051610990929190611d0e565b604051809103902089896114bb565b84156109e8576109e88d8d8080601f0160208091040260200160405190810160405280939291908181526020018383808284376000920191909152508c925033915061159e9050565b8a6001600160a01b03168d8d604051610a02929190611d0e565b60405180910390207fca6abbe9d7f11422cb6ca7629fbf6fe9efb1c621f71ce8f02b9f2a230097404f8f8f876000015186604051610a439493929190611d60565b60405180910390a350505050505050505050505050565b604080516020810190915260008152825160208401206040517fd6e4fa86000000000000000000000000000000000000000000000000000000008152600481018290527f00000000000000000000000000000000000000000000000000000000000000006001600160a01b03908116916350e9a7159187917f00000000000000000000000000000000000000000000000000000000000000009091169063d6e4fa8690602401602060405180830381865afa158015610b1d573d6000803e3d6000fd5b505050506040513d601f19601f82011682018060405250810190610b419190611d1e565b866040518463ffffffff1660e01b8152600401610b6093929190611f2f565b602060405180830381865afa158015610b7d573d6000803e3d6000fd5b505050506040513d601f19601f82011682018060405250810190610ba19190611f54565b949350505050565b60006003610bb683611652565b101592915050565b80516020820120600090610bd183610ba9565b8015610c7a57506040517f96e494e8000000000000000000000000000000000000000000000000000000008152600481018290527f00000000000000000000000000000000000000000000000000000000000000006001600160a01b0316906396e494e890602401602060405180830381865afa158015610c56573d6000803e3d6000fd5b505050506040513d601f19601f82011682018060405250810190610c7a9190611d87565b9392505050565b610c89611287565b60005b600b548160ff161015610d7857836001600160a01b031660018260ff16600a8110610cb957610cb9611f96565b01546001600160a01b031603610d66578260018260ff16600a8110610ce057610ce0611f96565b0180547fffffffffffffffffffffff00ffffffffffffffffffffffffffffffffffffffff16600160a01b60ff9384160217905582906001908316600a8110610d2a57610d2a611f96565b018054911515600160a81b027fffffffffffffffffffff00ffffffffffffffffffffffffffffffffffffffffff90921691909117905550505050565b80610d7081611fc2565b915050610c8c565b5060405162461bcd60e51b815260206004820152601860248201527f5061796d656e74206f7074696f6e206e6f7420666f756e64000000000000000060448201526064015b60405180910390fd5b505050565b610dd3611287565b600a600b5410610e255760405162461bcd60e51b815260206004820152601860248201527f546f6f206d616e79207061796d656e74206f7074696f6e7300000000000000006044820152606401610dbd565b60028160ff161015610e795760405162461bcd60e51b815260206004820152601560248201527f446563696d616c73206d757374206265203e3d203200000000000000000000006044820152606401610dbd565b816001600b54600a8110610e8f57610e8f611f96565b01805473ffffffffffffffffffffffffffffffffffffffff19166001600160a01b0392909216919091179055600b548190600190600a8110610ed357610ed3611f96565b0160000160146101000a81548160ff021916908360ff160217905550600180600b54600a8110610f0557610f05611f96565b018054911515600160a81b027fffffffffffffffffffff00ffffffffffffffffffffffffffffffffffffffffff909216919091179055600b8054906000610f4b83611fe1565b91905055505050565b6000818152600c60205260409020544290610f90907f000000000000000000000000000000000000000000000000000000000000000090611ffa565b10610fca576040517f0a059d7100000000000000000000000000000000000000000000000000000000815260048101829052602401610dbd565b6000908152600c60205260409020429055565b610fe5611287565b6001600160a01b0381166110615760405162461bcd60e51b815260206004820152602660248201527f4f776e61626c653a206e6577206f776e657220697320746865207a65726f206160448201527f64647265737300000000000000000000000000000000000000000000000000006064820152608401610dbd565b6104f3816112e1565b6000805b600b5481101561125457600181600a811061108b5761108b611f96565b0154600160a81b900460ff16156112425760006002600183600a81106110b3576110b3611f96565b01546110c99190600160a01b900460ff1661200d565b6110d490600a61210a565b6110de9085612119565b90506000600183600a81106110f5576110f5611f96565b01546040517fdd62ed3e0000000000000000000000000000000000000000000000000000000081526001600160a01b0388811660048301523060248301529091169063dd62ed3e90604401602060405180830381865afa15801561115d573d6000803e3d6000fd5b505050506040513d601f19601f820116820180604052508101906111819190611d1e565b905081811061123f57600183600a811061119d5761119d611f96565b01546040517f23b872dd0000000000000000000000000000000000000000000000000000000081526001600160a01b03888116600483015230602483015260448201859052909116906323b872dd906064016020604051808303816000875af115801561120e573d6000803e3d6000fd5b505050506040513d601f19601f820116820180604052508101906112329190611d87565b50600193505050506104b3565b50505b8061124c81611fe1565b91505061106e565b506040517f1101129400000000000000000000000000000000000000000000000000000000815260040160405180910390fd5b6000546001600160a01b031633146107e15760405162461bcd60e51b815260206004820181905260248201527f4f776e61626c653a2063616c6c6572206973206e6f7420746865206f776e65726044820152606401610dbd565b600080546001600160a01b0383811673ffffffffffffffffffffffffffffffffffffffff19831681178455604051919092169283917f8be0079c531659141344cd1fd0a4f28419497f9722a3daafe3b4186f6b6457e09190a35050565b6000818152600c6020526040902054429061137a907f000000000000000000000000000000000000000000000000000000000000000090611ffa565b11156113b5576040517f5320bcf900000000000000000000000000000000000000000000000000000000815260048101829052602401610dbd565b6000818152600c602052604090205442906113f1907f000000000000000000000000000000000000000000000000000000000000000090611ffa565b1161142b576040517fcb7690d700000000000000000000000000000000000000000000000000000000815260048101829052602401610dbd565b61143483610bbe565b61146c57826040517f477707e8000000000000000000000000000000000000000000000000000000008152600401610dbd9190612130565b6000818152600c60205260408120556224ea00821015610dc6576040517f9a71997b00000000000000000000000000000000000000000000000000000000815260048101839052602401610dbd565b604080517fe87ebb796e516beccff9b955bf6c33af4ec312d6e2984185d016feab4d18a463602080830191909152818301869052825180830384018152606083019384905280519101207fe32954eb0000000000000000000000000000000000000000000000000000000090925285906001600160a01b0382169063e32954eb9061154e90859088908890606401612143565b6000604051808303816000875af115801561156d573d6000803e3d6000fd5b505050506040513d6000823e601f3d908101601f191682016040526115959190810190612166565b50505050505050565b7f00000000000000000000000000000000000000000000000000000000000000006001600160a01b0316637a806d6b338385876040516020016115e19190612265565b6040516020818303038152906040526040518563ffffffff1660e01b815260040161160f94939291906122a6565b6020604051808303816000875af115801561162e573d6000803e3d6000fd5b505050506040513d601f19601f8201168201806040525081019061072b9190611d1e565b8051600090819081905b808210156117d857600085838151811061167857611678611f96565b01602001516001600160f81b03191690507f80000000000000000000000000000000000000000000000000000000000000008110156116c3576116bc600184611ffa565b92506117c5565b7fe0000000000000000000000000000000000000000000000000000000000000006001600160f81b031982161015611700576116bc600284611ffa565b7ff0000000000000000000000000000000000000000000000000000000000000006001600160f81b03198216101561173d576116bc600384611ffa565b7ff8000000000000000000000000000000000000000000000000000000000000006001600160f81b03198216101561177a576116bc600484611ffa565b7ffc000000000000000000000000000000000000000000000000000000000000006001600160f81b0319821610156117b7576116bc600584611ffa565b6117c2600684611ffa565b92505b50826117d081611fe1565b93505061165c565b50909392505050565b6000602082840312156117f357600080fd5b81357fffffffff0000000000000000000000000000000000000000000000000000000081168114610c7a57600080fd5b60006020828403121561183557600080fd5b5035919050565b60008083601f84011261184e57600080fd5b50813567ffffffffffffffff81111561186657600080fd5b60208301915083602082850101111561187e57600080fd5b9250929050565b80356001600160a01b038116811461189c57600080fd5b919050565b600080600080606085870312156118b757600080fd5b843567ffffffffffffffff8111156118ce57600080fd5b6118da8782880161183c565b90955093506118ed905060208601611885565b9396929550929360400135925050565b60008060006060848603121561191257600080fd5b61191b84611885565b925061192960208501611885565b9150604084013590509250925092565b634e487b7160e01b600052604160045260246000fd5b604051601f8201601f1916810167ffffffffffffffff8111828210171561197857611978611939565b604052919050565b600067ffffffffffffffff82111561199a5761199a611939565b50601f01601f191660200190565b600082601f8301126119b957600080fd5b81356119cc6119c782611980565b61194f565b8181528460208386010111156119e157600080fd5b816020850160208301376000918101602001919091529392505050565b60008083601f840112611a1057600080fd5b50813567ffffffffffffffff811115611a2857600080fd5b6020830191508360208260051b850101111561187e57600080fd5b80151581146104f357600080fd5b803561ffff8116811461189c57600080fd5b60008060008060008060008060006101008a8c031215611a8257600080fd5b893567ffffffffffffffff80821115611a9a57600080fd5b611aa68d838e016119a8565b9a50611ab460208d01611885565b995060408c0135985060608c01359750611ad060808d01611885565b965060a08c0135915080821115611ae657600080fd5b50611af38c828d016119fe565b90955093505060c08a0135611b0781611a43565b9150611b1560e08b01611a51565b90509295985092959850929598565b6000806000806000806000806000806101008b8d031215611b4457600080fd5b8a3567ffffffffffffffff80821115611b5c57600080fd5b611b688e838f0161183c565b909c509a508a9150611b7c60208e01611885565b995060408d0135985060608d01359750611b9860808e01611885565b965060a08d0135915080821115611bae57600080fd5b50611bbb8d828e016119fe565b90955093505060c08b0135611bcf81611a43565b9150611bdd60e08c01611a51565b90509295989b9194979a5092959850565b60008060408385031215611c0157600080fd5b823567ffffffffffffffff811115611c1857600080fd5b611c24858286016119a8565b95602094909401359450505050565b600060208284031215611c4557600080fd5b813567ffffffffffffffff811115611c5c57600080fd5b610ba1848285016119a8565b803560ff8116811461189c57600080fd5b600080600060608486031215611c8e57600080fd5b611c9784611885565b9250611ca560208501611c68565b91506040840135611cb581611a43565b809150509250925092565b60008060408385031215611cd357600080fd5b611cdc83611885565b9150611cea60208401611c68565b90509250929050565b600060208284031215611d0557600080fd5b610c7a82611885565b8183823760009101908152919050565b600060208284031215611d3057600080fd5b5051919050565b81835281816020850137506000828201602090810191909152601f909101601f19169091010190565b606081526000611d74606083018688611d37565b6020830194909452506040015292915050565b600060208284031215611d9957600080fd5b8151610c7a81611a43565b818352600060208085019450848460051b86018460005b87811015611e265783830389528135601e19883603018112611ddc57600080fd5b8701858101903567ffffffffffffffff811115611df857600080fd5b803603821315611e0757600080fd5b611e12858284611d37565b9a87019a9450505090840190600101611dbb565b5090979650505050505050565b60006101008b83526001600160a01b03808c1660208501528a60408501528960608501528089166080850152508060a0840152611e738184018789611da4565b94151560c0840152505061ffff9190911660e090910152979650505050505050565b60a081526000611ea960a08301888a611d37565b90506001600160a01b03808716602084015285604084015280851660608401525061ffff83166080830152979650505050505050565b60005b83811015611efa578181015183820152602001611ee2565b50506000910152565b60008151808452611f1b816020860160208601611edf565b601f01601f19169290920160200192915050565b606081526000611f426060830186611f03565b60208301949094525060400152919050565b600060208284031215611f6657600080fd5b6040516020810181811067ffffffffffffffff82111715611f8957611f89611939565b6040529151825250919050565b634e487b7160e01b600052603260045260246000fd5b634e487b7160e01b600052601160045260246000fd5b600060ff821660ff8103611fd857611fd8611fac565b60010192915050565b600060018201611ff357611ff3611fac565b5060010190565b808201808211156104b3576104b3611fac565b60ff82811682821603908111156104b3576104b3611fac565b600181815b8085111561206157816000190482111561204757612047611fac565b8085161561205457918102915b93841c939080029061202b565b509250929050565b600082612078575060016104b3565b81612085575060006104b3565b816001811461209b57600281146120a5576120c1565b60019150506104b3565b60ff8411156120b6576120b6611fac565b50506001821b6104b3565b5060208310610133831016604e8410600b84101617156120e4575081810a6104b3565b6120ee8383612026565b806000190482111561210257612102611fac565b029392505050565b6000610c7a60ff841683612069565b80820281158282048414176104b3576104b3611fac565b602081526000610c7a6020830184611f03565b83815260406020820152600061215d604083018486611da4565b95945050505050565b6000602080838503121561217957600080fd5b825167ffffffffffffffff8082111561219157600080fd5b818501915085601f8301126121a557600080fd5b8151818111156121b7576121b7611939565b8060051b6121c685820161194f565b91825283810185019185810190898411156121e057600080fd5b86860192505b83831015612258578251858111156121fe5760008081fd5b8601603f81018b136122105760008081fd5b8781015160406122226119c783611980565b8281528d828486010111156122375760008081fd5b612246838c8301848701611edf565b855250505091860191908601906121e6565b9998505050505050505050565b60008251612277818460208701611edf565b7f2e616e7900000000000000000000000000000000000000000000000000000000920191825250600401919050565b60006001600160a01b0380871683528086166020840152808516604084015250608060608301526122da6080830184611f03565b969550505050505056fea264697066735822122027c689d71bf0bcd380eac30ec9189e8e3ada6cf261462322dd3d54cd7a7a172364736f6c63430008110033",
  "devdoc": {
    "kind": "dev",
    "methods": {
      "owner()": {
        "details": "Returns the address of the current owner."
      },
      "recoverFunds(address,address,uint256)": {
        "details": "The contract is Ownable and only the owner can call the recover function.",
        "params": {
          "_amount": "The amount of tokens to recover.",
          "_to": "The address to send the tokens to.",
          "_token": "The address of the ERC20 token to recover"
        }
      },
      "renounceOwnership()": {
        "details": "Leaves the contract without owner. It will not be possible to call `onlyOwner` functions. Can only be called by the current owner. NOTE: Renouncing ownership will leave the contract without an owner, thereby disabling any functionality that is only available to the owner."
      },
      "transferOwnership(address)": {
        "details": "Transfers ownership of the contract to a new account (`newOwner`). Can only be called by the current owner."
      }
    },
    "version": 1
  },
  "userdoc": {
    "kind": "user",
    "methods": {
      "recoverFunds(address,address,uint256)": {
        "notice": "Recover ERC20 tokens sent to the contract by mistake."
      }
    },
    "notice": "This is a fork/copy of the ENS registrar controller with the following changes:  .any TLD is used instead of .eth  ERC20 (USDT, USDC, DAI, etc) stablecoins are supported as payment options  ETH is UNsupported as payment option",
    "version": 1
  },
  "storageLayout": {
    "storage": [
      {
        "astId": 7,
        "contract": "contracts/anytype/AnytypeRegistrarController.sol:AnytypeRegistrarController",
        "label": "_owner",
        "offset": 0,
        "slot": "0",
        "type": "t_address"
      },
      {
        "astId": 3634,
        "contract": "contracts/anytype/AnytypeRegistrarController.sol:AnytypeRegistrarController",
        "label": "paymentOptions",
        "offset": 0,
        "slot": "1",
        "type": "t_array(t_struct(ERC20PaymentOption)3629_storage)10_storage"
      },
      {
        "astId": 3637,
        "contract": "contracts/anytype/AnytypeRegistrarController.sol:AnytypeRegistrarController",
        "label": "paymentOptionsCount",
        "offset": 0,
        "slot": "11",
        "type": "t_uint256"
      },
      {
        "astId": 3641,
        "contract": "contracts/anytype/AnytypeRegistrarController.sol:AnytypeRegistrarController",
        "label": "commitments",
        "offset": 0,
        "slot": "12",
        "type": "t_mapping(t_bytes32,t_uint256)"
      }
    ],
    "types": {
      "t_address": {
        "encoding": "inplace",
        "label": "address",
        "numberOfBytes": "20"
      },
      "t_array(t_struct(ERC20PaymentOption)3629_storage)10_storage": {
        "base": "t_struct(ERC20PaymentOption)3629_storage",
        "encoding": "inplace",
        "label": "struct AnytypeRegistrarController.ERC20PaymentOption[10]",
        "numberOfBytes": "320"
      },
      "t_bool": {
        "encoding": "inplace",
        "label": "bool",
        "numberOfBytes": "1"
      },
      "t_bytes32": {
        "encoding": "inplace",
        "label": "bytes32",
        "numberOfBytes": "32"
      },
      "t_mapping(t_bytes32,t_uint256)": {
        "encoding": "mapping",
        "key": "t_bytes32",
        "label": "mapping(bytes32 => uint256)",
        "numberOfBytes": "32",
        "value": "t_uint256"
      },
      "t_struct(ERC20PaymentOption)3629_storage": {
        "encoding": "inplace",
        "label": "struct AnytypeRegistrarController.ERC20PaymentOption",
        "members": [
          {
            "astId": 3624,
            "contract": "contracts/anytype/AnytypeRegistrarController.sol:AnytypeRegistrarController",
            "label": "token",
            "offset": 0,
            "slot": "0",
            "type": "t_address"
          },
          {
            "astId": 3626,
            "contract": "contracts/anytype/AnytypeRegistrarController.sol:AnytypeRegistrarController",
            "label": "decimals",
            "offset": 20,
            "slot": "0",
            "type": "t_uint8"
          },
          {
            "astId": 3628,
            "contract": "contracts/anytype/AnytypeRegistrarController.sol:AnytypeRegistrarController",
            "label": "enabled",
            "offset": 21,
            "slot": "0",
            "type": "t_bool"
          }
        ],
        "numberOfBytes": "32"
      },
      "t_uint256": {
        "encoding": "inplace",
        "label": "uint256",
        "numberOfBytes": "32"
      },
      "t_uint8": {
        "encoding": "inplace",
        "label": "uint8",
        "numberOfBytes": "1"
      }
    }
  }
}