{
  "address": "0x521B2CfFB4b465732FFBD3Cd4B02c62006Aa81a9",
  "abi": [
    {
      "inputs": [],
      "stateMutability": "nonpayable",
      "type": "constructor"
    },
    {
      "anonymous": false,
      "inputs": [
        {
          "indexed": true,
          "internalType": "address",
          "name": "owner",
          "type": "address"
        },
        {
          "indexed": true,
          "internalType": "address",
          "name": "spender",
          "type": "address"
        },
        {
          "indexed": false,
          "internalType": "uint256",
          "name": "value",
          "type": "uint256"
        }
      ],
      "name": "Approval",
      "type": "event"
    },
    {
      "anonymous": false,
      "inputs": [
        {
          "indexed": true,
          "internalType": "address",
          "name": "from",
          "type": "address"
        },
        {
          "indexed": true,
          "internalType": "address",
          "name": "to",
          "type": "address"
        },
        {
          "indexed": false,
          "internalType": "uint256",
          "name": "value",
          "type": "uint256"
        }
      ],
      "name": "Transfer",
      "type": "event"
    },
    {
      "inputs": [
        {
          "internalType": "address",
          "name": "owner",
          "type": "address"
        },
        {
          "internalType": "address",
          "name": "spender",
          "type": "address"
        }
      ],
      "name": "allowance",
      "outputs": [
        {
          "internalType": "uint256",
          "name": "",
          "type": "uint256"
        }
      ],
      "stateMutability": "view",
      "type": "function"
    },
    {
      "inputs": [
        {
          "internalType": "address",
          "name": "spender",
          "type": "address"
        },
        {
          "internalType": "uint256",
          "name": "value",
          "type": "uint256"
        }
      ],
      "name": "approve",
      "outputs": [
        {
          "internalType": "bool",
          "name": "",
          "type": "bool"
        }
      ],
      "stateMutability": "nonpayable",
      "type": "function"
    },
    {
      "inputs": [
        {
          "internalType": "address",
          "name": "from",
          "type": "address"
        },
        {
          "internalType": "address",
          "name": "spender",
          "type": "address"
        },
        {
          "internalType": "uint256",
          "name": "value",
          "type": "uint256"
        }
      ],
      "name": "approveFor",
      "outputs": [
        {
          "internalType": "bool",
          "name": "",
          "type": "bool"
        }
      ],
      "stateMutability": "nonpayable",
      "type": "function"
    },
    {
      "inputs": [
        {
          "internalType": "address",
          "name": "account",
          "type": "address"
        }
      ],
      "name": "balanceOf",
      "outputs": [
        {
          "internalType": "uint256",
          "name": "",
          "type": "uint256"
        }
      ],
      "stateMutability": "view",
      "type": "function"
    },
    {
      "inputs": [],
      "name": "decimals",
      "outputs": [
        {
          "internalType": "uint8",
          "name": "",
          "type": "uint8"
        }
      ],
      "stateMutability": "view",
      "type": "function"
    },
    {
      "inputs": [
        {
          "internalType": "address",
          "name": "to",
          "type": "address"
        },
        {
          "internalType": "uint256",
          "name": "valueUsd",
          "type": "uint256"
        }
      ],
      "name": "mint",
      "outputs": [],
      "stateMutability": "nonpayable",
      "type": "function"
    },
    {
      "inputs": [],
      "name": "name",
      "outputs": [
        {
          "internalType": "string",
          "name": "",
          "type": "string"
        }
      ],
      "stateMutability": "view",
      "type": "function"
    },
    {
      "inputs": [],
      "name": "symbol",
      "outputs": [
        {
          "internalType": "string",
          "name": "",
          "type": "string"
        }
      ],
      "stateMutability": "view",
      "type": "function"
    },
    {
      "inputs": [],
      "name": "total",
      "outputs": [
        {
          "internalType": "uint256",
          "name": "",
          "type": "uint256"
        }
      ],
      "stateMutability": "view",
      "type": "function"
    },
    {
      "inputs": [],
      "name": "totalSupply",
      "outputs": [
        {
          "internalType": "uint256",
          "name": "",
          "type": "uint256"
        }
      ],
      "stateMutability": "view",
      "type": "function"
    },
    {
      "inputs": [
        {
          "internalType": "address",
          "name": "to",
          "type": "address"
        },
        {
          "internalType": "uint256",
          "name": "value",
          "type": "uint256"
        }
      ],
      "name": "transfer",
      "outputs": [
        {
          "internalType": "bool",
          "name": "",
          "type": "bool"
        }
      ],
      "stateMutability": "nonpayable",
      "type": "function"
    },
    {
      "inputs": [
        {
          "internalType": "address",
          "name": "from",
          "type": "address"
        },
        {
          "internalType": "address",
          "name": "to",
          "type": "address"
        },
        {
          "internalType": "uint256",
          "name": "value",
          "type": "uint256"
        }
      ],
      "name": "transferFrom",
      "outputs": [
        {
          "internalType": "bool",
          "name": "",
          "type": "bool"
        }
      ],
      "stateMutability": "nonpayable",
      "type": "function"
    }
  ],
  "transactionHash": "0x6ccbe4f5b6de74a4a68e5bb5ffd3ce7204ba6b57408472a9a266b3dd46d3f01b",
  "args": [],
  "numDeployments": 1,
  "solcInputHash": "a9958ceba7bce35ac66a7d3dddda8fdd",
  "bytecode": "0x60c0604052600960809081526846616b65205553444360b81b60a0526000906100289082610111565b50604080518082019091526005815264465553444360d81b60208201526001906100529082610111565b506002805460ff1916600617905534801561006c57600080fd5b506101d0565b634e487b7160e01b600052604160045260246000fd5b600181811c9082168061009c57607f821691505b6020821081036100bc57634e487b7160e01b600052602260045260246000fd5b50919050565b601f82111561010c57600081815260208120601f850160051c810160208610156100e95750805b601f850160051c820191505b81811015610108578281556001016100f5565b5050505b505050565b81516001600160401b0381111561012a5761012a610072565b61013e816101388454610088565b846100c2565b602080601f831160018114610173576000841561015b5750858301515b600019600386901b1c1916600185901b178555610108565b600085815260208120601f198616915b828110156101a257888601518255948401946001909101908401610183565b50858210156101c05787850151600019600388901b60f8161c191681555b5050505050600190811b01905550565b6109a9806101df6000396000f3fe608060405234801561001057600080fd5b50600436106100d45760003560e01c8063313ce5671161008157806395d89b411161005b57806395d89b41146101b8578063a9059cbb146101c0578063dd62ed3e146101d357600080fd5b8063313ce5671461015b57806340c10f191461017a57806370a082311461018f57600080fd5b806323b872dd116100b257806323b872dd1461012c5780632b9917461461013f5780632ddbd13a1461015257600080fd5b806306fdde03146100d9578063095ea7b3146100f757806318160ddd1461011a575b600080fd5b6100e161020c565b6040516100ee91906106d1565b60405180910390f35b61010a61010536600461073b565b61029a565b60405190151581526020016100ee565b6003545b6040519081526020016100ee565b61010a61013a366004610765565b610307565b61010a61014d366004610765565b6104d2565b61011e60035481565b6002546101689060ff1681565b60405160ff90911681526020016100ee565b61018d61018836600461073b565b61052d565b005b61011e61019d3660046107a1565b6001600160a01b031660009081526004602052604090205490565b6100e16105d7565b61010a6101ce36600461073b565b6105e4565b61011e6101e13660046107c3565b6001600160a01b03918216600090815260056020908152604080832093909416825291909152205490565b60008054610219906107f6565b80601f0160208091040260200160405190810160405280929190818152602001828054610245906107f6565b80156102925780601f1061026757610100808354040283529160200191610292565b820191906000526020600020905b81548152906001019060200180831161027557829003601f168201915b505050505081565b3360008181526005602090815260408083206001600160a01b038716808552925280832085905551919290917f8c5be1e5ebec7d5bd14f71427d1e84f3dd0314c0f7b2291e5b200ac8c7c3b925906102f59086815260200190565b60405180910390a35060015b92915050565b6001600160a01b0383166000908152600460205260408120548211156103745760405162461bcd60e51b815260206004820152601460248201527f496e73756666696369656e742062616c616e636500000000000000000000000060448201526064015b60405180910390fd5b6001600160a01b03841660009081526005602090815260408083203384529091529020548211156103e75760405162461bcd60e51b815260206004820152601660248201527f496e73756666696369656e7420616c6c6f77616e636500000000000000000000604482015260640161036b565b6001600160a01b0384166000908152600460205260408120805484929061040f908490610846565b90915550506001600160a01b0383166000908152600460205260408120805484929061043c908490610859565b90915550506001600160a01b038416600090815260056020908152604080832033845290915281208054849290610474908490610846565b92505081905550826001600160a01b0316846001600160a01b03167fddf252ad1be2c89b69c2b068fc378daa952ba7f163c4a11628f55a4df523b3ef846040516104c091815260200190565b60405180910390a35060019392505050565b6001600160a01b03838116600081815260056020908152604080832094871680845294825280832086905551858152919392917f8c5be1e5ebec7d5bd14f71427d1e84f3dd0314c0f7b2291e5b200ac8c7c3b92591016104c0565b6002546000906105419060ff16600a610950565b61054b908361095c565b9050806003600082825461055f9190610859565b90915550506001600160a01b0383166000908152600460205260408120805483929061058c908490610859565b90915550506040518181526001600160a01b038416906000907fddf252ad1be2c89b69c2b068fc378daa952ba7f163c4a11628f55a4df523b3ef9060200160405180910390a3505050565b60018054610219906107f6565b336000908152600460205260408120548211156106435760405162461bcd60e51b815260206004820152601460248201527f496e73756666696369656e742062616c616e6365000000000000000000000000604482015260640161036b565b3360009081526004602052604081208054849290610662908490610846565b90915550506001600160a01b0383166000908152600460205260408120805484929061068f908490610859565b90915550506040518281526001600160a01b0384169033907fddf252ad1be2c89b69c2b068fc378daa952ba7f163c4a11628f55a4df523b3ef906020016102f5565b600060208083528351808285015260005b818110156106fe578581018301518582016040015282016106e2565b506000604082860101526040601f19601f8301168501019250505092915050565b80356001600160a01b038116811461073657600080fd5b919050565b6000806040838503121561074e57600080fd5b6107578361071f565b946020939093013593505050565b60008060006060848603121561077a57600080fd5b6107838461071f565b92506107916020850161071f565b9150604084013590509250925092565b6000602082840312156107b357600080fd5b6107bc8261071f565b9392505050565b600080604083850312156107d657600080fd5b6107df8361071f565b91506107ed6020840161071f565b90509250929050565b600181811c9082168061080a57607f821691505b60208210810361082a57634e487b7160e01b600052602260045260246000fd5b50919050565b634e487b7160e01b600052601160045260246000fd5b8181038181111561030157610301610830565b8082018082111561030157610301610830565b600181815b808511156108a757816000190482111561088d5761088d610830565b8085161561089a57918102915b93841c9390800290610871565b509250929050565b6000826108be57506001610301565b816108cb57506000610301565b81600181146108e157600281146108eb57610907565b6001915050610301565b60ff8411156108fc576108fc610830565b50506001821b610301565b5060208310610133831016604e8410600b841016171561092a575081810a610301565b610934838361086c565b806000190482111561094857610948610830565b029392505050565b60006107bc83836108af565b80820281158282048414176103015761030161083056fea2646970667358221220c8ed5324fca2a1703da017e0a54d419426ee89b98eb7e7343e756c4ac0ef519564736f6c63430008110033",
  "devdoc": {
    "kind": "dev",
    "methods": {
      "allowance(address,address)": {
        "details": "Returns the remaining number of tokens that `spender` will be allowed to spend on behalf of `owner` through {transferFrom}. This is zero by default. This value changes when {approve} or {transferFrom} are called."
      },
      "balanceOf(address)": {
        "details": "Returns the amount of tokens owned by `account`."
      },
      "totalSupply()": {
        "details": "Returns the amount of tokens in existence."
      }
    },
    "version": 1
  },
  "userdoc": {
    "kind": "user",
    "methods": {},
    "version": 1
  },
  "storageLayout": {
    "storage": [
      {
        "astId": 86,
        "contract": "contracts/anytype/mocks/FakeUSDC.sol:FakeUSDC",
        "label": "name",
        "offset": 0,
        "slot": "0",
        "type": "t_string_storage"
      },
      {
        "astId": 89,
        "contract": "contracts/anytype/mocks/FakeUSDC.sol:FakeUSDC",
        "label": "symbol",
        "offset": 0,
        "slot": "1",
        "type": "t_string_storage"
      },
      {
        "astId": 92,
        "contract": "contracts/anytype/mocks/FakeUSDC.sol:FakeUSDC",
        "label": "decimals",
        "offset": 0,
        "slot": "2",
        "type": "t_uint8"
      },
      {
        "astId": 94,
        "contract": "contracts/anytype/mocks/FakeUSDC.sol:FakeUSDC",
        "label": "total",
        "offset": 0,
        "slot": "3",
        "type": "t_uint256"
      },
      {
        "astId": 98,
        "contract": "contracts/anytype/mocks/FakeUSDC.sol:FakeUSDC",
        "label": "balances",
        "offset": 0,
        "slot": "4",
        "type": "t_mapping(t_address,t_uint256)"
      },
      {
        "astId": 104,
        "contract": "contracts/anytype/mocks/FakeUSDC.sol:FakeUSDC",
        "label": "allowances",
        "offset": 0,
        "slot": "5",
        "type": "t_mapping(t_address,t_mapping(t_address,t_uint256))"
      }
    ],
    "types": {
      "t_address": {
        "encoding": "inplace",
        "label": "address",
        "numberOfBytes": "20"
      },
      "t_mapping(t_address,t_mapping(t_address,t_uint256))": {
        "encoding": "mapping",
        "key": "t_address",
        "label": "mapping(address => mapping(address => uint256))",
        "numberOfBytes": "32",
        "value": "t_mapping(t_address,t_uint256)"
      },
      "t_mapping(t_address,t_uint256)": {
        "encoding": "mapping",
        "key": "t_address",
        "label": "mapping(address => uint256)",
        "numberOfBytes": "32",
        "value": "t_uint256"
      },
      "t_string_storage": {
        "encoding": "bytes",
        "label": "string",
        "numberOfBytes": "32"
      },
      "t_uint256": {
        "encoding": "inplace",
        "label": "uint256",
        "numberOfBytes": "32"
      },
      "t_uint8": {
        "encoding": "inplace",
        "label": "uint8",
        "numberOfBytes": "1"
      }
    }
  }
}